{
  "contractName": "Memorialize",
  "abi": [
    {
      "constant": true,
      "inputs": [],
      "name": "obituaryFee",
      "outputs": [
        {
          "name": "",
          "type": "uint256"
        }
      ],
      "payable": false,
      "stateMutability": "view",
      "type": "function"
    },
    {
      "constant": true,
      "inputs": [],
      "name": "owner",
      "outputs": [
        {
          "name": "",
          "type": "address"
        }
      ],
      "payable": false,
      "stateMutability": "view",
      "type": "function"
    },
    {
      "constant": true,
      "inputs": [
        {
          "name": "",
          "type": "uint256"
        }
      ],
      "name": "deadPersons",
      "outputs": [
        {
          "name": "name",
          "type": "string"
        },
        {
          "name": "obituary",
          "type": "string"
        },
        {
          "name": "survivedBy",
          "type": "string"
        },
        {
          "name": "pictureHash",
          "type": "string"
        },
        {
          "name": "ipfsInfo",
          "type": "string"
        }
      ],
      "payable": false,
      "stateMutability": "view",
      "type": "function"
    },
    {
      "constant": false,
      "inputs": [
        {
          "name": "newOwner",
          "type": "address"
        }
      ],
      "name": "transferOwnership",
      "outputs": [],
      "payable": false,
      "stateMutability": "nonpayable",
      "type": "function"
    },
    {
      "anonymous": false,
      "inputs": [
        {
          "indexed": true,
          "name": "from",
          "type": "address"
        },
        {
          "indexed": false,
          "name": "name",
          "type": "string"
        },
        {
          "indexed": false,
          "name": "obituary",
          "type": "string"
        }
      ],
      "name": "ObituaryPosted",
      "type": "event"
    },
    {
      "anonymous": false,
      "inputs": [
        {
          "indexed": true,
          "name": "previousOwner",
          "type": "address"
        },
        {
          "indexed": true,
          "name": "newOwner",
          "type": "address"
        }
      ],
      "name": "OwnershipTransferred",
      "type": "event"
    },
    {
      "constant": false,
      "inputs": [
        {
          "name": "name",
          "type": "string"
        },
        {
          "name": "obituary",
          "type": "string"
        },
        {
          "name": "survivedBy",
          "type": "string"
        },
        {
          "name": "pictureHash",
          "type": "string"
        },
        {
          "name": "ipfsInfo",
          "type": "string"
        }
      ],
      "name": "submitObituary",
      "outputs": [
        {
          "name": "",
          "type": "uint256"
        }
      ],
      "payable": true,
      "stateMutability": "payable",
      "type": "function"
    },
    {
      "constant": false,
      "inputs": [],
      "name": "withdraw",
      "outputs": [],
      "payable": false,
      "stateMutability": "nonpayable",
      "type": "function"
    },
    {
      "constant": false,
      "inputs": [
        {
          "name": "_fee",
          "type": "uint256"
        }
      ],
      "name": "setObituaryFee",
      "outputs": [],
      "payable": false,
      "stateMutability": "nonpayable",
      "type": "function"
    },
    {
      "constant": true,
      "inputs": [],
      "name": "getBalanceOfContract",
      "outputs": [
        {
          "name": "",
          "type": "uint256"
        }
      ],
      "payable": false,
      "stateMutability": "view",
      "type": "function"
    },
    {
      "constant": true,
      "inputs": [
        {
          "name": "_owner",
          "type": "address"
        }
      ],
      "name": "getObituaries",
      "outputs": [
        {
          "name": "",
          "type": "uint256[]"
        }
      ],
      "payable": false,
      "stateMutability": "view",
      "type": "function"
    },
    {
      "constant": true,
      "inputs": [
        {
          "name": "id",
          "type": "uint256"
        }
      ],
      "name": "getSingleObituary",
      "outputs": [
        {
          "name": "",
          "type": "string[]"
        }
      ],
      "payable": false,
      "stateMutability": "view",
      "type": "function"
    }
  ],
  "bytecode": "0x608060405266038d7ea4c68000600355336000806101000a81548173ffffffffffffffffffffffffffffffffffffffff021916908373ffffffffffffffffffffffffffffffffffffffff1602179055506116378061005e6000396000f3006080604052600436106100a4576000357c0100000000000000000000000000000000000000000000000000000000900463ffffffff1680631611d4a0146100a957806322968885146100d9578063399ea920146101045780633ccfd60b1461012d5780634753cd8f146101445780634d100248146101815780636939c698146101ac5780638da5cb5b146101e9578063a245e30814610214578063f2fde38b14610255575b600080fd5b6100c360048036036100be919081019061110b565b61027e565b6040516100d09190611482565b60405180910390f35b3480156100e557600080fd5b506100ee61047c565b6040516100fb9190611482565b60405180910390f35b34801561011057600080fd5b5061012b600480360361012691908101906111fa565b6104f6565b005b34801561013957600080fd5b5061014261055b565b005b34801561015057600080fd5b5061016b600480360361016691908101906110e2565b610638565b60405161017891906113b3565b60405180910390f35b34801561018d57600080fd5b5061019661076a565b6040516101a39190611482565b60405180910390f35b3480156101b857600080fd5b506101d360048036036101ce91908101906111fa565b610770565b6040516101e09190611391565b60405180910390f35b3480156101f557600080fd5b506101fe610b08565b60405161020b9190611376565b60405180910390f35b34801561022057600080fd5b5061023b600480360361023691908101906111fa565b610b2d565b60405161024c95949392919061140c565b60405180910390f35b34801561026157600080fd5b5061027c600480360361027791908101906110e2565b610e6a565b005b6000806003543414151561029157600080fd5b6001600260a0604051908101604052808a815260200189815260200188815260200187815260200186815250908060018154018082558091505090600182039060005260206000209060050201600090919290919091506000820151816000019080519060200190610304929190610fbf565b506020820151816001019080519060200190610321929190610fbf565b50604082015181600201908051906020019061033e929190610fbf565b50606082015181600301908051906020019061035b929190610fbf565b506080820151816004019080519060200190610378929190610fbf565b505050039050336005600083815260200190815260200160002060006101000a81548173ffffffffffffffffffffffffffffffffffffffff021916908373ffffffffffffffffffffffffffffffffffffffff160217905550600460003373ffffffffffffffffffffffffffffffffffffffff1673ffffffffffffffffffffffffffffffffffffffff168152602001908152602001600020600081548092919060010191905055503373ffffffffffffffffffffffffffffffffffffffff167f160c07250467aa35d7ac2f565795a7a75706ee227b7d7de112d8977b436acd6088886040516104679291906113d5565b60405180910390a28091505095945050505050565b60008060009054906101000a900473ffffffffffffffffffffffffffffffffffffffff1673ffffffffffffffffffffffffffffffffffffffff163373ffffffffffffffffffffffffffffffffffffffff161415156104d957600080fd5b3073ffffffffffffffffffffffffffffffffffffffff1631905090565b6000809054906101000a900473ffffffffffffffffffffffffffffffffffffffff1673ffffffffffffffffffffffffffffffffffffffff163373ffffffffffffffffffffffffffffffffffffffff1614151561055157600080fd5b8060038190555050565b6000809054906101000a900473ffffffffffffffffffffffffffffffffffffffff1673ffffffffffffffffffffffffffffffffffffffff163373ffffffffffffffffffffffffffffffffffffffff161415156105b657600080fd5b600160009054906101000a900473ffffffffffffffffffffffffffffffffffffffff1673ffffffffffffffffffffffffffffffffffffffff166108fc3073ffffffffffffffffffffffffffffffffffffffff16319081150290604051600060405180830381858888f19350505050158015610635573d6000803e3d6000fd5b50565b606080600080600460008673ffffffffffffffffffffffffffffffffffffffff1673ffffffffffffffffffffffffffffffffffffffff168152602001908152602001600020546040519080825280602002602001820160405280156106ac5781602001602082028038833980820191505090505b50925060009150600090505b60028054905081101561075f578473ffffffffffffffffffffffffffffffffffffffff166005600083815260200190815260200160002060009054906101000a900473ffffffffffffffffffffffffffffffffffffffff1673ffffffffffffffffffffffffffffffffffffffff1614156107525780838381518110151561073b57fe5b906020019060200201818152505081806001019250505b80806001019150506106b8565b829350505050919050565b60035481565b60608060046040519080825280602002602001820160405280156107a857816020015b60608152602001906001900390816107935790505b5090506002838154811015156107ba57fe5b90600052602060002090600502016003018054600181600116156101000203166002900480601f01602080910402602001604051908101604052809291908181526020018280546001816001161561010002031660029004801561085f5780601f106108345761010080835404028352916020019161085f565b820191906000526020600020905b81548152906001019060200180831161084257829003601f168201915b505050505081600081518110151561087357fe5b9060200190602002018190525060028381548110151561088f57fe5b90600052602060002090600502016004018054600181600116156101000203166002900480601f0160208091040260200160405190810160405280929190818152602001828054600181600116156101000203166002900480156109345780601f1061090957610100808354040283529160200191610934565b820191906000526020600020905b81548152906001019060200180831161091757829003601f168201915b505050505081600181518110151561094857fe5b9060200190602002018190525060028381548110151561096457fe5b90600052602060002090600502016001018054600181600116156101000203166002900480601f016020809104026020016040519081016040528092919081815260200182805460018160011615610100020316600290048015610a095780601f106109de57610100808354040283529160200191610a09565b820191906000526020600020905b8154815290600101906020018083116109ec57829003601f168201915b5050505050816002815181101515610a1d57fe5b90602001906020020181905250600283815481101515610a3957fe5b90600052602060002090600502016000018054600181600116156101000203166002900480601f016020809104026020016040519081016040528092919081815260200182805460018160011615610100020316600290048015610ade5780601f10610ab357610100808354040283529160200191610ade565b820191906000526020600020905b815481529060010190602001808311610ac157829003601f168201915b5050505050816003815181101515610af257fe5b9060200190602002018190525080915050919050565b6000809054906101000a900473ffffffffffffffffffffffffffffffffffffffff1681565b600281815481101515610b3c57fe5b9060005260206000209060050201600091509050806000018054600181600116156101000203166002900480601f016020809104026020016040519081016040528092919081815260200182805460018160011615610100020316600290048015610be85780601f10610bbd57610100808354040283529160200191610be8565b820191906000526020600020905b815481529060010190602001808311610bcb57829003601f168201915b505050505090806001018054600181600116156101000203166002900480601f016020809104026020016040519081016040528092919081815260200182805460018160011615610100020316600290048015610c865780601f10610c5b57610100808354040283529160200191610c86565b820191906000526020600020905b815481529060010190602001808311610c6957829003601f168201915b505050505090806002018054600181600116156101000203166002900480601f016020809104026020016040519081016040528092919081815260200182805460018160011615610100020316600290048015610d245780601f10610cf957610100808354040283529160200191610d24565b820191906000526020600020905b815481529060010190602001808311610d0757829003601f168201915b505050505090806003018054600181600116156101000203166002900480601f016020809104026020016040519081016040528092919081815260200182805460018160011615610100020316600290048015610dc25780601f10610d9757610100808354040283529160200191610dc2565b820191906000526020600020905b815481529060010190602001808311610da557829003601f168201915b505050505090806004018054600181600116156101000203166002900480601f016020809104026020016040519081016040528092919081815260200182805460018160011615610100020316600290048015610e605780601f10610e3557610100808354040283529160200191610e60565b820191906000526020600020905b815481529060010190602001808311610e4357829003601f168201915b5050505050905085565b6000809054906101000a900473ffffffffffffffffffffffffffffffffffffffff1673ffffffffffffffffffffffffffffffffffffffff163373ffffffffffffffffffffffffffffffffffffffff16141515610ec557600080fd5b600073ffffffffffffffffffffffffffffffffffffffff168173ffffffffffffffffffffffffffffffffffffffff1614151515610f0157600080fd5b8073ffffffffffffffffffffffffffffffffffffffff166000809054906101000a900473ffffffffffffffffffffffffffffffffffffffff1673ffffffffffffffffffffffffffffffffffffffff167f8be0079c531659141344cd1fd0a4f28419497f9722a3daafe3b4186f6b6457e060405160405180910390a3806000806101000a81548173ffffffffffffffffffffffffffffffffffffffff021916908373ffffffffffffffffffffffffffffffffffffffff16021790555050565b828054600181600116156101000203166002900490600052602060002090601f016020900481019282601f1061100057805160ff191683800117855561102e565b8280016001018555821561102e579182015b8281111561102d578251825591602001919060010190611012565b5b50905061103b919061103f565b5090565b61106191905b8082111561105d576000816000905550600101611045565b5090565b90565b60006110708235611580565b905092915050565b600082601f830112151561108b57600080fd5b813561109e611099826114ca565b61149d565b915080825260208301602083018583830111156110ba57600080fd5b6110c58382846115aa565b50505092915050565b60006110da82356115a0565b905092915050565b6000602082840312156110f457600080fd5b600061110284828501611064565b91505092915050565b600080600080600060a0868803121561112357600080fd5b600086013567ffffffffffffffff81111561113d57600080fd5b61114988828901611078565b955050602086013567ffffffffffffffff81111561116657600080fd5b61117288828901611078565b945050604086013567ffffffffffffffff81111561118f57600080fd5b61119b88828901611078565b935050606086013567ffffffffffffffff8111156111b857600080fd5b6111c488828901611078565b925050608086013567ffffffffffffffff8111156111e157600080fd5b6111ed88828901611078565b9150509295509295909350565b60006020828403121561120c57600080fd5b600061121a848285016110ce565b91505092915050565b61122c81611556565b82525050565b600061123d82611510565b80845260208401935083602082028501611256856114f6565b60005b8481101561128f578383038852611271838351611331565b925061127c8261153c565b9150602088019750600181019050611259565b508196508694505050505092915050565b60006112ab8261151b565b8084526020840193506112bd83611503565b60005b828110156112ef576112d3868351611367565b6112dc82611549565b91506020860195506001810190506112c0565b50849250505092915050565b600061130682611531565b80845261131a8160208601602086016115b9565b611323816115ec565b602085010191505092915050565b600061133c82611526565b8084526113508160208601602086016115b9565b611359816115ec565b602085010191505092915050565b61137081611576565b82525050565b600060208201905061138b6000830184611223565b92915050565b600060208201905081810360008301526113ab8184611232565b905092915050565b600060208201905081810360008301526113cd81846112a0565b905092915050565b600060408201905081810360008301526113ef81856112fb565b9050818103602083015261140381846112fb565b90509392505050565b600060a08201905081810360008301526114268188611331565b9050818103602083015261143a8187611331565b9050818103604083015261144e8186611331565b905081810360608301526114628185611331565b905081810360808301526114768184611331565b90509695505050505050565b60006020820190506114976000830184611367565b92915050565b6000604051905081810181811067ffffffffffffffff821117156114c057600080fd5b8060405250919050565b600067ffffffffffffffff8211156114e157600080fd5b601f19601f8301169050602081019050919050565b6000602082019050919050565b6000602082019050919050565b600081519050919050565b600081519050919050565b600081519050919050565b600081519050919050565b6000602082019050919050565b6000602082019050919050565b600073ffffffffffffffffffffffffffffffffffffffff82169050919050565b6000819050919050565b600073ffffffffffffffffffffffffffffffffffffffff82169050919050565b6000819050919050565b82818337600083830152505050565b60005b838110156115d75780820151818401526020810190506115bc565b838111156115e6576000848401525b50505050565b6000601f19601f83011690509190505600a265627a7a72305820c052833ff7a6ea51a441cd1801a3384c3905bab69734d3cfe5036d9e7db602036c6578706572696d656e74616cf50037",
  "source": "pragma solidity ^0.4.24;\npragma experimental ABIEncoderV2;\n\nimport \"./Ownable.sol\";\n\ncontract Memorialize is Ownable {\n    \n    \n    struct DeadPerson {\n        string name;\n        string obituary;\n        string survivedBy;\n        string pictureHash;\n        string ipfsInfo;\n    }\n    \n    address contractOwner;\n    DeadPerson[] public deadPersons;\n    uint public obituaryFee = .001 ether;\n\n    \n    mapping(address => uint)  private ownerDeadPeopleCount;\n    mapping(uint => address) private deadPersonToOwner;\n    \n    \n    modifier ownerOf(uint _deadPersonId) {\n        require(msg.sender == deadPersonToOwner[_deadPersonId]);\n        _;\n    }\n    \n    event ObituaryPosted(address indexed from, string name, string obituary);\n    \n    \n    function submitObituary(string name, string obituary, string survivedBy, string pictureHash, string ipfsInfo) public payable returns (uint){\n        require(msg.value == obituaryFee);\n        \n        uint id = deadPersons.push(DeadPerson(name, obituary, survivedBy, pictureHash, ipfsInfo)) - 1;\n        deadPersonToOwner[id] = msg.sender;\n        //reminder to refactor using safemath\n        ownerDeadPeopleCount[msg.sender]++;\n        emit ObituaryPosted(msg.sender, name, obituary);\n        return id;\n    }\n    \n    \n    function withdraw() external onlyOwner {\n        contractOwner.transfer(address(this).balance);\n    }\n    \n    function setObituaryFee(uint _fee) external onlyOwner {\n        obituaryFee = _fee;\n    }\n    \n    function getBalanceOfContract() public view onlyOwner returns (uint256) {\n        return address(this).balance;\n    }\n    \n    function getObituaries(address _owner) external view returns (uint[]) {\n        uint[] memory result = new uint[](ownerDeadPeopleCount[_owner]);\n        uint counter = 0;\n        for (uint i = 0; i < deadPersons.length; i++) {\n            if (deadPersonToOwner[i] == _owner) {\n                result[counter] = i;\n                counter++;\n            }\n        }\n        \n        return result;\n    }\n    \n    function getSingleObituary(uint id) public view returns (string[]) {\n        string[] memory obituaryInfo = new string[](4);\n        obituaryInfo[0] = deadPersons[id].pictureHash;\n        obituaryInfo[1] = deadPersons[id].ipfsInfo;\n        obituaryInfo[2] = deadPersons[id].obituary;\n        obituaryInfo[3] = deadPersons[id].name;\n        return obituaryInfo;\n    }\n    \n}",
  "sourcePath": "/Users/nicoleklein/Projects/Blockchain/memorialapp/contracts/Memorialize.sol",
  "compiler": {
    "name": "solc",
    "version": "0.4.24+commit.e67f0147.Emscripten.clang"
  },
  "schemaVersion": "2.0.0",
  "updatedAt": "2018-06-04T03:27:22.780Z"
}